{
  "_format": "hh-sol-artifact-1",
  "contractName": "Condominium",
  "sourceName": "contracts/Condominium.sol",
  "abi": [
    {
      "inputs": [],
      "stateMutability": "nonpayable",
      "type": "constructor"
    },
    {
      "inputs": [
        {
          "internalType": "address",
          "name": "resident",
          "type": "address"
        },
        {
          "internalType": "uint16",
          "name": "residenceId",
          "type": "uint16"
        }
      ],
      "name": "addResident",
      "outputs": [],
      "stateMutability": "nonpayable",
      "type": "function"
    },
    {
      "inputs": [
        {
          "internalType": "string",
          "name": "title",
          "type": "string"
        },
        {
          "internalType": "string",
          "name": "descrition",
          "type": "string"
        }
      ],
      "name": "addTopic",
      "outputs": [],
      "stateMutability": "nonpayable",
      "type": "function"
    },
    {
      "inputs": [
        {
          "internalType": "string",
          "name": "title",
          "type": "string"
        }
      ],
      "name": "closeVoting",
      "outputs": [],
      "stateMutability": "nonpayable",
      "type": "function"
    },
    {
      "inputs": [
        {
          "internalType": "address",
          "name": "",
          "type": "address"
        }
      ],
      "name": "counselors",
      "outputs": [
        {
          "internalType": "bool",
          "name": "",
          "type": "bool"
        }
      ],
      "stateMutability": "view",
      "type": "function"
    },
    {
      "inputs": [],
      "name": "getAddress",
      "outputs": [
        {
          "internalType": "address",
          "name": "",
          "type": "address"
        }
      ],
      "stateMutability": "view",
      "type": "function"
    },
    {
      "inputs": [
        {
          "internalType": "string",
          "name": "title",
          "type": "string"
        }
      ],
      "name": "getTopic",
      "outputs": [
        {
          "components": [
            {
              "internalType": "string",
              "name": "title",
              "type": "string"
            },
            {
              "internalType": "string",
              "name": "description",
              "type": "string"
            },
            {
              "internalType": "enum CondominiumLib.Status",
              "name": "status",
              "type": "uint8"
            },
            {
              "internalType": "uint256",
              "name": "createdDate",
              "type": "uint256"
            },
            {
              "internalType": "uint256",
              "name": "startDate",
              "type": "uint256"
            },
            {
              "internalType": "uint256",
              "name": "endDate",
              "type": "uint256"
            }
          ],
          "internalType": "struct CondominiumLib.Topic",
          "name": "",
          "type": "tuple"
        }
      ],
      "stateMutability": "view",
      "type": "function"
    },
    {
      "inputs": [
        {
          "internalType": "address",
          "name": "resident",
          "type": "address"
        }
      ],
      "name": "isResident",
      "outputs": [
        {
          "internalType": "bool",
          "name": "",
          "type": "bool"
        }
      ],
      "stateMutability": "view",
      "type": "function"
    },
    {
      "inputs": [],
      "name": "manager",
      "outputs": [
        {
          "internalType": "address",
          "name": "",
          "type": "address"
        }
      ],
      "stateMutability": "view",
      "type": "function"
    },
    {
      "inputs": [
        {
          "internalType": "string",
          "name": "title",
          "type": "string"
        }
      ],
      "name": "openVoting",
      "outputs": [],
      "stateMutability": "nonpayable",
      "type": "function"
    },
    {
      "inputs": [
        {
          "internalType": "address",
          "name": "resident",
          "type": "address"
        }
      ],
      "name": "removeResident",
      "outputs": [],
      "stateMutability": "nonpayable",
      "type": "function"
    },
    {
      "inputs": [
        {
          "internalType": "string",
          "name": "title",
          "type": "string"
        }
      ],
      "name": "removeTopic",
      "outputs": [],
      "stateMutability": "nonpayable",
      "type": "function"
    },
    {
      "inputs": [
        {
          "internalType": "uint16",
          "name": "residenceId",
          "type": "uint16"
        }
      ],
      "name": "residenceExists",
      "outputs": [
        {
          "internalType": "bool",
          "name": "",
          "type": "bool"
        }
      ],
      "stateMutability": "view",
      "type": "function"
    },
    {
      "inputs": [
        {
          "internalType": "uint16",
          "name": "",
          "type": "uint16"
        }
      ],
      "name": "residences",
      "outputs": [
        {
          "internalType": "bool",
          "name": "",
          "type": "bool"
        }
      ],
      "stateMutability": "view",
      "type": "function"
    },
    {
      "inputs": [
        {
          "internalType": "address",
          "name": "",
          "type": "address"
        }
      ],
      "name": "residents",
      "outputs": [
        {
          "internalType": "uint16",
          "name": "",
          "type": "uint16"
        }
      ],
      "stateMutability": "view",
      "type": "function"
    },
    {
      "inputs": [
        {
          "internalType": "address",
          "name": "resident",
          "type": "address"
        },
        {
          "internalType": "bool",
          "name": "isEntering",
          "type": "bool"
        }
      ],
      "name": "setCounselor",
      "outputs": [],
      "stateMutability": "nonpayable",
      "type": "function"
    },
    {
      "inputs": [
        {
          "internalType": "address",
          "name": "newManager",
          "type": "address"
        }
      ],
      "name": "setManager",
      "outputs": [],
      "stateMutability": "nonpayable",
      "type": "function"
    },
    {
      "inputs": [
        {
          "internalType": "string",
          "name": "title",
          "type": "string"
        }
      ],
      "name": "topicExists",
      "outputs": [
        {
          "internalType": "bool",
          "name": "",
          "type": "bool"
        }
      ],
      "stateMutability": "view",
      "type": "function"
    },
    {
      "inputs": [
        {
          "internalType": "bytes32",
          "name": "",
          "type": "bytes32"
        }
      ],
      "name": "topics",
      "outputs": [
        {
          "internalType": "string",
          "name": "title",
          "type": "string"
        },
        {
          "internalType": "string",
          "name": "description",
          "type": "string"
        },
        {
          "internalType": "enum CondominiumLib.Status",
          "name": "status",
          "type": "uint8"
        },
        {
          "internalType": "uint256",
          "name": "createdDate",
          "type": "uint256"
        },
        {
          "internalType": "uint256",
          "name": "startDate",
          "type": "uint256"
        },
        {
          "internalType": "uint256",
          "name": "endDate",
          "type": "uint256"
        }
      ],
      "stateMutability": "view",
      "type": "function"
    },
    {
      "inputs": [
        {
          "internalType": "string",
          "name": "title",
          "type": "string"
        },
        {
          "internalType": "enum CondominiumLib.Options",
          "name": "option",
          "type": "uint8"
        }
      ],
      "name": "vote",
      "outputs": [],
      "stateMutability": "nonpayable",
      "type": "function"
    },
    {
      "inputs": [
        {
          "internalType": "string",
          "name": "title",
          "type": "string"
        }
      ],
      "name": "votesCounter",
      "outputs": [
        {
          "internalType": "uint256",
          "name": "",
          "type": "uint256"
        }
      ],
      "stateMutability": "view",
      "type": "function"
    },
    {
      "inputs": [
        {
          "internalType": "bytes32",
          "name": "",
          "type": "bytes32"
        },
        {
          "internalType": "uint256",
          "name": "",
          "type": "uint256"
        }
      ],
      "name": "votings",
      "outputs": [
        {
          "internalType": "address",
          "name": "resident",
          "type": "address"
        },
        {
          "internalType": "uint16",
          "name": "residence",
          "type": "uint16"
        },
        {
          "internalType": "enum CondominiumLib.Options",
          "name": "option",
          "type": "uint8"
        },
        {
          "internalType": "uint256",
          "name": "timestamp",
          "type": "uint256"
        }
      ],
      "stateMutability": "view",
      "type": "function"
    }
  ],
  "bytecode": "0x60806040523480156200001157600080fd5b50336000806101000a81548173ffffffffffffffffffffffffffffffffffffffff021916908373ffffffffffffffffffffffffffffffffffffffff1602179055506000600190505b60028161ffff161162000110576000600190505b60058161ffff1611620000f9576000600190505b60058161ffff1611620000e257600180600083606486026103e88802010161ffff1661ffff16815260200190815260200160002060006101000a81548160ff0219169083151502179055508080620000d99062000154565b91505062000081565b508080620000f09062000154565b9150506200006d565b508080620001079062000154565b91505062000059565b5062000183565b7f4e487b7100000000000000000000000000000000000000000000000000000000600052601160045260246000fd5b600061ffff82169050919050565b6000620001618262000146565b915061ffff820362000178576200017762000117565b5b600182019050919050565b6131f880620001936000396000f3fe608060405234801561001057600080fd5b50600436106101375760003560e01c80637b57ee49116100b85780639e1bf9851161007c5780639e1bf9851461038c578063b1583546146103a8578063bc2f89f3146103c4578063c1e6adfd146103f4578063d0ebdbe714610410578063e4d65d541461042c57610137565b80637b57ee49146102ec5780638fc5dad81461030857806390ca27f314610324578063967d59e41461034057806396fa1def1461037057610137565b80634de53265116100ff5780634de5326514610210578063597de9871461024057806368aca3351461025c5780636e8cd7ff1461028c57806378b5749d146102bc57610137565b80630f2fbeec1461013c5780631a6c01921461017157806338cc4831146101a4578063474502d8146101c2578063481c6a75146101f2575b600080fd5b61015660048036038101906101519190611edb565b61045c565b60405161016896959493929190612028565b60405180910390f35b61018b600480360381019061018691906120c3565b6105b5565b60405161019b94939291906121a9565b60405180910390f35b6101ac61063d565b6040516101b991906121ee565b60405180910390f35b6101dc60048036038101906101d7919061233e565b610645565b6040516101e9919061247f565b60405180910390f35b6101fa6107fc565b60405161020791906121ee565b60405180910390f35b61022a600480360381019061022591906124cd565b610820565b6040516102379190612515565b60405180910390f35b61025a600480360381019061025591906124cd565b610840565b005b610276600480360381019061027191906124cd565b610a50565b6040516102839190612515565b60405180910390f35b6102a660048036038101906102a1919061233e565b610aad565b6040516102b39190612530565b60405180910390f35b6102d660048036038101906102d1919061233e565b610ad9565b6040516102e39190612515565b60405180910390f35b6103066004803603810190610301919061233e565b610af1565b005b610322600480360381019061031d919061233e565b610c64565b005b61033e60048036038101906103399190612570565b611092565b005b61035a600480360381019061035591906125f8565b6115a2565b6040516103679190612515565b60405180910390f35b61038a60048036038101906103859190612651565b6115d4565b005b6103a660048036038101906103a1919061233e565b611761565b005b6103c260048036038101906103bd9190612691565b611919565b005b6103de60048036038101906103d991906125f8565b611aa1565b6040516103eb9190612515565b60405180910390f35b61040e600480360381019061040991906126d1565b611ac1565b005b61042a600480360381019061042591906124cd565b611c8b565b005b610446600480360381019061044191906124cd565b611dcb565b6040516104539190612749565b60405180910390f35b600460205280600052604060002060009150905080600001805461047f90612793565b80601f01602080910402602001604051908101604052809291908181526020018280546104ab90612793565b80156104f85780601f106104cd576101008083540402835291602001916104f8565b820191906000526020600020905b8154815290600101906020018083116104db57829003601f168201915b50505050509080600101805461050d90612793565b80601f016020809104026020016040519081016040528092919081815260200182805461053990612793565b80156105865780601f1061055b57610100808354040283529160200191610586565b820191906000526020600020905b81548152906001019060200180831161056957829003601f168201915b5050505050908060020160009054906101000a900460ff16908060030154908060040154908060050154905086565b600560205281600052604060002081815481106105d157600080fd5b9060005260206000209060020201600091509150508060000160009054906101000a900473ffffffffffffffffffffffffffffffffffffffff16908060000160149054906101000a900461ffff16908060000160169054906101000a900460ff16908060010154905084565b600030905090565b61064d611dec565b600082805190602001209050600460008281526020019081526020016000206040518060c001604052908160008201805461068790612793565b80601f01602080910402602001604051908101604052809291908181526020018280546106b390612793565b80156107005780601f106106d557610100808354040283529160200191610700565b820191906000526020600020905b8154815290600101906020018083116106e357829003601f168201915b5050505050815260200160018201805461071990612793565b80601f016020809104026020016040519081016040528092919081815260200182805461074590612793565b80156107925780601f1061076757610100808354040283529160200191610792565b820191906000526020600020905b81548152906001019060200180831161077557829003601f168201915b505050505081526020016002820160009054906101000a900460ff1660038111156107c0576107bf611f98565b5b60038111156107d2576107d1611f98565b5b81526020016003820154815260200160048201548152602001600582015481525050915050919050565b60008054906101000a900473ffffffffffffffffffffffffffffffffffffffff1681565b60036020528060005260406000206000915054906101000a900460ff1681565b60008054906101000a900473ffffffffffffffffffffffffffffffffffffffff1673ffffffffffffffffffffffffffffffffffffffff163273ffffffffffffffffffffffffffffffffffffffff16146108ce576040517f08c379a00000000000000000000000000000000000000000000000000000000081526004016108c590612810565b60405180910390fd5b600360008273ffffffffffffffffffffffffffffffffffffffff1673ffffffffffffffffffffffffffffffffffffffff16815260200190815260200160002060009054906101000a900460ff161561095b576040517f08c379a00000000000000000000000000000000000000000000000000000000081526004016109529061287c565b60405180910390fd5b600260008273ffffffffffffffffffffffffffffffffffffffff1673ffffffffffffffffffffffffffffffffffffffff16815260200190815260200160002060006101000a81549061ffff0219169055600360008273ffffffffffffffffffffffffffffffffffffffff1673ffffffffffffffffffffffffffffffffffffffff16815260200190815260200160002060009054906101000a900460ff1615610a4d57600360008273ffffffffffffffffffffffffffffffffffffffff1673ffffffffffffffffffffffffffffffffffffffff16815260200190815260200160002060006101000a81549060ff02191690555b50565b600080600260008473ffffffffffffffffffffffffffffffffffffffff1673ffffffffffffffffffffffffffffffffffffffff16815260200190815260200160002060009054906101000a900461ffff1661ffff16119050919050565b600080828051906020012090506005600082815260200190815260200160002080549050915050919050565b600080610ae583610645565b60600151119050919050565b60008054906101000a900473ffffffffffffffffffffffffffffffffffffffff1673ffffffffffffffffffffffffffffffffffffffff163273ffffffffffffffffffffffffffffffffffffffff1614610b7f576040517f08c379a0000000000000000000000000000000000000000000000000000000008152600401610b7690612810565b60405180910390fd5b6000610b8a82610645565b905060006003811115610ba057610b9f611f98565b5b81604001516003811115610bb757610bb6611f98565b5b14610bf7576040517f08c379a0000000000000000000000000000000000000000000000000000000008152600401610bee906128e8565b60405180910390fd5b600460008380519060200120815260200190815260200160002060008082016000610c229190611e34565b600182016000610c329190611e34565b6002820160006101000a81549060ff021916905560038201600090556004820160009055600582016000905550505050565b60008054906101000a900473ffffffffffffffffffffffffffffffffffffffff1673ffffffffffffffffffffffffffffffffffffffff163273ffffffffffffffffffffffffffffffffffffffff1614610cf2576040517f08c379a0000000000000000000000000000000000000000000000000000000008152600401610ce990612810565b60405180910390fd5b6000610cfd82610645565b90506000816060015111610d46576040517f08c379a0000000000000000000000000000000000000000000000000000000008152600401610d3d90612954565b60405180910390fd5b60016003811115610d5a57610d59611f98565b5b81604001516003811115610d7157610d70611f98565b5b14610db1576040517f08c379a0000000000000000000000000000000000000000000000000000000008152600401610da8906129c0565b60405180910390fd5b60008060008085805190602001209050600060056000838152602001908152602001600020805480602002602001604051908101604052809291908181526020016000905b82821015610ee357838290600052602060002090600202016040518060800160405290816000820160009054906101000a900473ffffffffffffffffffffffffffffffffffffffff1673ffffffffffffffffffffffffffffffffffffffff1673ffffffffffffffffffffffffffffffffffffffff1681526020016000820160149054906101000a900461ffff1661ffff1661ffff1681526020016000820160169054906101000a900460ff166003811115610eb457610eb3611f98565b5b6003811115610ec657610ec5611f98565b5b815260200160018201548152505081526020019060010190610df6565b50505050905060005b81518160ff161015610fdb5760016003811115610f0c57610f0b611f98565b5b828260ff1681518110610f2257610f216129e0565b5b6020026020010151604001516003811115610f4057610f3f611f98565b5b03610f58578580610f5090612a4b565b965050610fc8565b60026003811115610f6c57610f6b611f98565b5b828260ff1681518110610f8257610f816129e0565b5b6020026020010151604001516003811115610fa057610f9f611f98565b5b03610fb8578480610fb090612a4b565b955050610fc7565b8380610fc390612a4b565b9450505b5b8080610fd390612a4b565b915050610eec565b508360ff168560ff16111561102e5760026004600084815260200190815260200160002060020160006101000a81548160ff0219169083600381111561102457611023611f98565b5b021790555061106e565b60036004600084815260200190815260200160002060020160006101000a81548160ff0219169083600381111561106857611067611f98565b5b02179055505b42600460008481526020019081526020016000206005018190555050505050505050565b60008054906101000a900473ffffffffffffffffffffffffffffffffffffffff1673ffffffffffffffffffffffffffffffffffffffff163273ffffffffffffffffffffffffffffffffffffffff1614806110f157506110f032610a50565b5b611130576040517f08c379a000000000000000000000000000000000000000000000000000000000815260040161112790612ae6565b60405180910390fd5b6000600381111561114457611143611f98565b5b81600381111561115757611156611f98565b5b03611197576040517f08c379a000000000000000000000000000000000000000000000000000000000815260040161118e90612b52565b60405180910390fd5b60006111a283610645565b905060008160600151116111eb576040517f08c379a00000000000000000000000000000000000000000000000000000000081526004016111e290612954565b60405180910390fd5b600160038111156111ff576111fe611f98565b5b8160400151600381111561121657611215611f98565b5b14611256576040517f08c379a000000000000000000000000000000000000000000000000000000000815260040161124d90612bbe565b60405180910390fd5b6000600260003273ffffffffffffffffffffffffffffffffffffffff1673ffffffffffffffffffffffffffffffffffffffff16815260200190815260200160002060009054906101000a900461ffff169050600084805190602001209050600060056000838152602001908152602001600020805480602002602001604051908101604052809291908181526020016000905b828210156113d657838290600052602060002090600202016040518060800160405290816000820160009054906101000a900473ffffffffffffffffffffffffffffffffffffffff1673ffffffffffffffffffffffffffffffffffffffff1673ffffffffffffffffffffffffffffffffffffffff1681526020016000820160149054906101000a900461ffff1661ffff1661ffff1681526020016000820160169054906101000a900460ff1660038111156113a7576113a6611f98565b5b60038111156113b9576113b8611f98565b5b8152602001600182015481525050815260200190600101906112e9565b50505050905060005b8151811015611464578361ffff16828281518110611400576113ff6129e0565b5b60200260200101516020015161ffff1603611457576000611456576040517f08c379a000000000000000000000000000000000000000000000000000000000815260040161144d90612c50565b60405180910390fd5b5b80806001019150506113df565b50600060405180608001604052803273ffffffffffffffffffffffffffffffffffffffff1681526020018561ffff1681526020018760038111156114ab576114aa611f98565b5b81526020014281525090506005600084815260200190815260200160002081908060018154018082558091505060019003906000526020600020906002020160009091909190915060008201518160000160006101000a81548173ffffffffffffffffffffffffffffffffffffffff021916908373ffffffffffffffffffffffffffffffffffffffff16021790555060208201518160000160146101000a81548161ffff021916908361ffff16021790555060408201518160000160166101000a81548160ff0219169083600381111561158857611587611f98565b5b021790555060608201518160010155505050505050505050565b6000600160008361ffff1661ffff16815260200190815260200160002060009054906101000a900460ff169050919050565b60008054906101000a900473ffffffffffffffffffffffffffffffffffffffff1673ffffffffffffffffffffffffffffffffffffffff163273ffffffffffffffffffffffffffffffffffffffff1614611662576040517f08c379a000000000000000000000000000000000000000000000000000000000815260040161165990612810565b60405180910390fd5b801561170d5761167182610a50565b6116b0576040517f08c379a00000000000000000000000000000000000000000000000000000000081526004016116a790612cbc565b60405180910390fd5b6001600360008473ffffffffffffffffffffffffffffffffffffffff1673ffffffffffffffffffffffffffffffffffffffff16815260200190815260200160002060006101000a81548160ff02191690831515021790555061175d565b600360008373ffffffffffffffffffffffffffffffffffffffff1673ffffffffffffffffffffffffffffffffffffffff16815260200190815260200160002060006101000a81549060ff02191690555b5050565b60008054906101000a900473ffffffffffffffffffffffffffffffffffffffff1673ffffffffffffffffffffffffffffffffffffffff163273ffffffffffffffffffffffffffffffffffffffff16146117ef576040517f08c379a00000000000000000000000000000000000000000000000000000000081526004016117e690612810565b60405180910390fd5b60006117fa82610645565b90506000816060015111611843576040517f08c379a000000000000000000000000000000000000000000000000000000000815260040161183a90612954565b60405180910390fd5b6000600381111561185757611856611f98565b5b8160400151600381111561186e5761186d611f98565b5b146118ae576040517f08c379a00000000000000000000000000000000000000000000000000000000081526004016118a590612d4e565b60405180910390fd5b60008280519060200120905060016004600083815260200190815260200160002060020160006101000a81548160ff021916908360038111156118f4576118f3611f98565b5b0217905550426004600083815260200190815260200160002060040181905550505050565b60008054906101000a900473ffffffffffffffffffffffffffffffffffffffff1673ffffffffffffffffffffffffffffffffffffffff163273ffffffffffffffffffffffffffffffffffffffff1614806119bc5750600360003273ffffffffffffffffffffffffffffffffffffffff1673ffffffffffffffffffffffffffffffffffffffff16815260200190815260200160002060009054906101000a900460ff165b6119fb576040517f08c379a00000000000000000000000000000000000000000000000000000000081526004016119f290612de0565b60405180910390fd5b611a04816115a2565b611a43576040517f08c379a0000000000000000000000000000000000000000000000000000000008152600401611a3a90612e4c565b60405180910390fd5b80600260008473ffffffffffffffffffffffffffffffffffffffff1673ffffffffffffffffffffffffffffffffffffffff16815260200190815260200160002060006101000a81548161ffff021916908361ffff1602179055505050565b60016020528060005260406000206000915054906101000a900460ff1681565b60008054906101000a900473ffffffffffffffffffffffffffffffffffffffff1673ffffffffffffffffffffffffffffffffffffffff163273ffffffffffffffffffffffffffffffffffffffff161480611b205750611b1f32610a50565b5b611b5f576040517f08c379a0000000000000000000000000000000000000000000000000000000008152600401611b5690612ae6565b60405180910390fd5b611b6882610ad9565b15611ba8576040517f08c379a0000000000000000000000000000000000000000000000000000000008152600401611b9f90612eb8565b60405180910390fd5b60006040518060c0016040528084815260200183815260200160006003811115611bd557611bd4611f98565b5b815260200142815260200160008152602001600081525090508060046000858051906020012081526020019081526020016000206000820151816000019081611c1e9190613084565b506020820151816001019081611c349190613084565b5060408201518160020160006101000a81548160ff02191690836003811115611c6057611c5f611f98565b5b0217905550606082015181600301556080820151816004015560a08201518160050155905050505050565b60008054906101000a900473ffffffffffffffffffffffffffffffffffffffff1673ffffffffffffffffffffffffffffffffffffffff163273ffffffffffffffffffffffffffffffffffffffff1614611d19576040517f08c379a0000000000000000000000000000000000000000000000000000000008152600401611d1090612810565b60405180910390fd5b600073ffffffffffffffffffffffffffffffffffffffff168173ffffffffffffffffffffffffffffffffffffffff1603611d88576040517f08c379a0000000000000000000000000000000000000000000000000000000008152600401611d7f906131a2565b60405180910390fd5b806000806101000a81548173ffffffffffffffffffffffffffffffffffffffff021916908373ffffffffffffffffffffffffffffffffffffffff16021790555050565b60026020528060005260406000206000915054906101000a900461ffff1681565b6040518060c00160405280606081526020016060815260200160006003811115611e1957611e18611f98565b5b81526020016000815260200160008152602001600081525090565b508054611e4090612793565b6000825580601f10611e525750611e71565b601f016020900490600052602060002090810190611e709190611e74565b5b50565b5b80821115611e8d576000816000905550600101611e75565b5090565b6000604051905090565b600080fd5b600080fd5b6000819050919050565b611eb881611ea5565b8114611ec357600080fd5b50565b600081359050611ed581611eaf565b92915050565b600060208284031215611ef157611ef0611e9b565b5b6000611eff84828501611ec6565b91505092915050565b600081519050919050565b600082825260208201905092915050565b60005b83811015611f42578082015181840152602081019050611f27565b60008484015250505050565b6000601f19601f8301169050919050565b6000611f6a82611f08565b611f748185611f13565b9350611f84818560208601611f24565b611f8d81611f4e565b840191505092915050565b7f4e487b7100000000000000000000000000000000000000000000000000000000600052602160045260246000fd5b60048110611fd857611fd7611f98565b5b50565b6000819050611fe982611fc7565b919050565b6000611ff982611fdb565b9050919050565b61200981611fee565b82525050565b6000819050919050565b6120228161200f565b82525050565b600060c08201905081810360008301526120428189611f5f565b905081810360208301526120568188611f5f565b90506120656040830187612000565b6120726060830186612019565b61207f6080830185612019565b61208c60a0830184612019565b979650505050505050565b6120a08161200f565b81146120ab57600080fd5b50565b6000813590506120bd81612097565b92915050565b600080604083850312156120da576120d9611e9b565b5b60006120e885828601611ec6565b92505060206120f9858286016120ae565b9150509250929050565b600073ffffffffffffffffffffffffffffffffffffffff82169050919050565b600061212e82612103565b9050919050565b61213e81612123565b82525050565b600061ffff82169050919050565b61215b81612144565b82525050565b6004811061217257612171611f98565b5b50565b600081905061218382612161565b919050565b600061219382612175565b9050919050565b6121a381612188565b82525050565b60006080820190506121be6000830187612135565b6121cb6020830186612152565b6121d8604083018561219a565b6121e56060830184612019565b95945050505050565b60006020820190506122036000830184612135565b92915050565b600080fd5b600080fd5b7f4e487b7100000000000000000000000000000000000000000000000000000000600052604160045260246000fd5b61224b82611f4e565b810181811067ffffffffffffffff8211171561226a57612269612213565b5b80604052505050565b600061227d611e91565b90506122898282612242565b919050565b600067ffffffffffffffff8211156122a9576122a8612213565b5b6122b282611f4e565b9050602081019050919050565b82818337600083830152505050565b60006122e16122dc8461228e565b612273565b9050828152602081018484840111156122fd576122fc61220e565b5b6123088482856122bf565b509392505050565b600082601f83011261232557612324612209565b5b81356123358482602086016122ce565b91505092915050565b60006020828403121561235457612353611e9b565b5b600082013567ffffffffffffffff81111561237257612371611ea0565b5b61237e84828501612310565b91505092915050565b600082825260208201905092915050565b60006123a382611f08565b6123ad8185612387565b93506123bd818560208601611f24565b6123c681611f4e565b840191505092915050565b6123da81611fee565b82525050565b6123e98161200f565b82525050565b600060c083016000830151848203600086015261240c8282612398565b915050602083015184820360208601526124268282612398565b915050604083015161243b60408601826123d1565b50606083015161244e60608601826123e0565b50608083015161246160808601826123e0565b5060a083015161247460a08601826123e0565b508091505092915050565b6000602082019050818103600083015261249981846123ef565b905092915050565b6124aa81612123565b81146124b557600080fd5b50565b6000813590506124c7816124a1565b92915050565b6000602082840312156124e3576124e2611e9b565b5b60006124f1848285016124b8565b91505092915050565b60008115159050919050565b61250f816124fa565b82525050565b600060208201905061252a6000830184612506565b92915050565b60006020820190506125456000830184612019565b92915050565b6004811061255857600080fd5b50565b60008135905061256a8161254b565b92915050565b6000806040838503121561258757612586611e9b565b5b600083013567ffffffffffffffff8111156125a5576125a4611ea0565b5b6125b185828601612310565b92505060206125c28582860161255b565b9150509250929050565b6125d581612144565b81146125e057600080fd5b50565b6000813590506125f2816125cc565b92915050565b60006020828403121561260e5761260d611e9b565b5b600061261c848285016125e3565b91505092915050565b61262e816124fa565b811461263957600080fd5b50565b60008135905061264b81612625565b92915050565b6000806040838503121561266857612667611e9b565b5b6000612676858286016124b8565b92505060206126878582860161263c565b9150509250929050565b600080604083850312156126a8576126a7611e9b565b5b60006126b6858286016124b8565b92505060206126c7858286016125e3565b9150509250929050565b600080604083850312156126e8576126e7611e9b565b5b600083013567ffffffffffffffff81111561270657612705611ea0565b5b61271285828601612310565b925050602083013567ffffffffffffffff81111561273357612732611ea0565b5b61273f85828601612310565b9150509250929050565b600060208201905061275e6000830184612152565b92915050565b7f4e487b7100000000000000000000000000000000000000000000000000000000600052602260045260246000fd5b600060028204905060018216806127ab57607f821691505b6020821081036127be576127bd612764565b5b50919050565b7f4f6e6c7920746865206d616e616765722063616e20646f207468697300000000600082015250565b60006127fa601c83611f13565b9150612805826127c4565b602082019050919050565b60006020820190508181036000830152612829816127ed565b9050919050565b7f4120636f756e73656c6f722063616e6e6f742062652072656d6f766564000000600082015250565b6000612866601d83611f13565b915061287182612830565b602082019050919050565b6000602082019050818103600083015261289581612859565b9050919050565b7f4f6e6c792049444c4520746f706963732063616e2062652072656d6f76656400600082015250565b60006128d2601f83611f13565b91506128dd8261289c565b602082019050919050565b60006020820190508181036000830152612901816128c5565b9050919050565b7f54686520746f70696320646f6573206e6f742065786973740000000000000000600082015250565b600061293e601883611f13565b915061294982612908565b602082019050919050565b6000602082019050818103600083015261296d81612931565b9050919050565b7f4f6e6c7920564f54494e4720746f706963732063616e20626520636c6f736564600082015250565b60006129aa602083611f13565b91506129b582612974565b602082019050919050565b600060208201905081810360008301526129d98161299d565b9050919050565b7f4e487b7100000000000000000000000000000000000000000000000000000000600052603260045260246000fd5b7f4e487b7100000000000000000000000000000000000000000000000000000000600052601160045260246000fd5b600060ff82169050919050565b6000612a5682612a3e565b915060ff8203612a6957612a68612a0f565b5b600182019050919050565b7f4f6e6c7920746865206d616e61676572206f7220746865207265736964656e7460008201527f732063616e20646f207468697300000000000000000000000000000000000000602082015250565b6000612ad0602d83611f13565b9150612adb82612a74565b604082019050919050565b60006020820190508181036000830152612aff81612ac3565b9050919050565b7f546865206f7074696f6e2063616e6e6f7420626520454d505459000000000000600082015250565b6000612b3c601a83611f13565b9150612b4782612b06565b602082019050919050565b60006020820190508181036000830152612b6b81612b2f565b9050919050565b7f4f6e6c7920564f54494e4720746f706963732063616e20626520766f74656400600082015250565b6000612ba8601f83611f13565b9150612bb382612b72565b602082019050919050565b60006020820190508181036000830152612bd781612b9b565b9050919050565b7f41207265736964656e63652073686f756c6420766f7465206f6e6c79206f6e6360008201527f6500000000000000000000000000000000000000000000000000000000000000602082015250565b6000612c3a602183611f13565b9150612c4582612bde565b604082019050919050565b60006020820190508181036000830152612c6981612c2d565b9050919050565b7f54686520636f756e73656c6f72206d7573742062652061207265736964656e74600082015250565b6000612ca6602083611f13565b9150612cb182612c70565b602082019050919050565b60006020820190508181036000830152612cd581612c99565b9050919050565b7f4f6e6c792049444c4520746f706963732063616e206265206f70656e20666f7260008201527f20766f74696e6700000000000000000000000000000000000000000000000000602082015250565b6000612d38602783611f13565b9150612d4382612cdc565b604082019050919050565b60006020820190508181036000830152612d6781612d2b565b9050919050565b7f4f6e6c7920746865206d616e61676572206f722074686520636f756e63696c2060008201527f63616e20646f2074686973000000000000000000000000000000000000000000602082015250565b6000612dca602b83611f13565b9150612dd582612d6e565b604082019050919050565b60006020820190508181036000830152612df981612dbd565b9050919050565b7f54686973207265736964656e636520646f6573206e6f74206578697374000000600082015250565b6000612e36601d83611f13565b9150612e4182612e00565b602082019050919050565b60006020820190508181036000830152612e6581612e29565b9050919050565b7f5468697320746f70696320616c72656164792065786973747300000000000000600082015250565b6000612ea2601983611f13565b9150612ead82612e6c565b602082019050919050565b60006020820190508181036000830152612ed181612e95565b9050919050565b60008190508160005260206000209050919050565b60006020601f8301049050919050565b600082821b905092915050565b600060088302612f3a7fffffffffffffffffffffffffffffffffffffffffffffffffffffffffffffffff82612efd565b612f448683612efd565b95508019841693508086168417925050509392505050565b6000819050919050565b6000612f81612f7c612f778461200f565b612f5c565b61200f565b9050919050565b6000819050919050565b612f9b83612f66565b612faf612fa782612f88565b848454612f0a565b825550505050565b600090565b612fc4612fb7565b612fcf818484612f92565b505050565b5b81811015612ff357612fe8600082612fbc565b600181019050612fd5565b5050565b601f8211156130385761300981612ed8565b61301284612eed565b81016020851015613021578190505b61303561302d85612eed565b830182612fd4565b50505b505050565b600082821c905092915050565b600061305b6000198460080261303d565b1980831691505092915050565b6000613074838361304a565b9150826002028217905092915050565b61308d82611f08565b67ffffffffffffffff8111156130a6576130a5612213565b5b6130b08254612793565b6130bb828285612ff7565b600060209050601f8311600181146130ee57600084156130dc578287015190505b6130e68582613068565b86555061314e565b601f1984166130fc86612ed8565b60005b82811015613124578489015182556001820191506020850194506020810190506130ff565b86831015613141578489015161313d601f89168261304a565b8355505b6001600288020188555050505b505050505050565b7f5468652061646472657373206d7573742062652076616c696400000000000000600082015250565b600061318c601983611f13565b915061319782613156565b602082019050919050565b600060208201905081810360008301526131bb8161317f565b905091905056fea2646970667358221220a9b916ac883f292fbbc3c507318b3b62f8a25e0e1d0a9ce6534a00b969fc6cfd64736f6c63430008180033",
  "linkReferences": {},
  "deployedLinkReferences": {}
}