{
  "_format": "hh-sol-artifact-1",
  "contractName": "Condominium",
  "sourceName": "contracts/Condominium.sol",
  "abi": [
    {
      "inputs": [],
      "stateMutability": "nonpayable",
      "type": "constructor"
    },
    {
      "inputs": [
        {
          "internalType": "address",
          "name": "resident",
          "type": "address"
        },
        {
          "internalType": "uint16",
          "name": "residenceId",
          "type": "uint16"
        }
      ],
      "name": "addResident",
      "outputs": [],
      "stateMutability": "nonpayable",
      "type": "function"
    },
    {
      "inputs": [
        {
          "internalType": "string",
          "name": "title",
          "type": "string"
        },
        {
          "internalType": "string",
          "name": "descrition",
          "type": "string"
        }
      ],
      "name": "addTopic",
      "outputs": [],
      "stateMutability": "nonpayable",
      "type": "function"
    },
    {
      "inputs": [
        {
          "internalType": "string",
          "name": "title",
          "type": "string"
        }
      ],
      "name": "closeVoting",
      "outputs": [],
      "stateMutability": "nonpayable",
      "type": "function"
    },
    {
      "inputs": [
        {
          "internalType": "address",
          "name": "",
          "type": "address"
        }
      ],
      "name": "counselors",
      "outputs": [
        {
          "internalType": "bool",
          "name": "",
          "type": "bool"
        }
      ],
      "stateMutability": "view",
      "type": "function"
    },
    {
      "inputs": [
        {
          "internalType": "string",
          "name": "title",
          "type": "string"
        }
      ],
      "name": "getTopic",
      "outputs": [
        {
          "components": [
            {
              "internalType": "string",
              "name": "title",
              "type": "string"
            },
            {
              "internalType": "string",
              "name": "description",
              "type": "string"
            },
            {
              "internalType": "enum CondominiumLib.Status",
              "name": "status",
              "type": "uint8"
            },
            {
              "internalType": "uint256",
              "name": "createdDate",
              "type": "uint256"
            },
            {
              "internalType": "uint256",
              "name": "startDate",
              "type": "uint256"
            },
            {
              "internalType": "uint256",
              "name": "endDate",
              "type": "uint256"
            }
          ],
          "internalType": "struct CondominiumLib.Topic",
          "name": "",
          "type": "tuple"
        }
      ],
      "stateMutability": "view",
      "type": "function"
    },
    {
      "inputs": [
        {
          "internalType": "address",
          "name": "resident",
          "type": "address"
        }
      ],
      "name": "isResident",
      "outputs": [
        {
          "internalType": "bool",
          "name": "",
          "type": "bool"
        }
      ],
      "stateMutability": "view",
      "type": "function"
    },
    {
      "inputs": [],
      "name": "manager",
      "outputs": [
        {
          "internalType": "address",
          "name": "",
          "type": "address"
        }
      ],
      "stateMutability": "view",
      "type": "function"
    },
    {
      "inputs": [
        {
          "internalType": "string",
          "name": "title",
          "type": "string"
        }
      ],
      "name": "openVoting",
      "outputs": [],
      "stateMutability": "nonpayable",
      "type": "function"
    },
    {
      "inputs": [
        {
          "internalType": "address",
          "name": "resident",
          "type": "address"
        }
      ],
      "name": "removeResident",
      "outputs": [],
      "stateMutability": "nonpayable",
      "type": "function"
    },
    {
      "inputs": [
        {
          "internalType": "string",
          "name": "title",
          "type": "string"
        }
      ],
      "name": "removeTopic",
      "outputs": [],
      "stateMutability": "nonpayable",
      "type": "function"
    },
    {
      "inputs": [
        {
          "internalType": "uint16",
          "name": "residenceId",
          "type": "uint16"
        }
      ],
      "name": "residenceExists",
      "outputs": [
        {
          "internalType": "bool",
          "name": "",
          "type": "bool"
        }
      ],
      "stateMutability": "view",
      "type": "function"
    },
    {
      "inputs": [
        {
          "internalType": "uint16",
          "name": "",
          "type": "uint16"
        }
      ],
      "name": "residences",
      "outputs": [
        {
          "internalType": "bool",
          "name": "",
          "type": "bool"
        }
      ],
      "stateMutability": "view",
      "type": "function"
    },
    {
      "inputs": [
        {
          "internalType": "address",
          "name": "",
          "type": "address"
        }
      ],
      "name": "residents",
      "outputs": [
        {
          "internalType": "uint16",
          "name": "",
          "type": "uint16"
        }
      ],
      "stateMutability": "view",
      "type": "function"
    },
    {
      "inputs": [
        {
          "internalType": "address",
          "name": "resident",
          "type": "address"
        },
        {
          "internalType": "bool",
          "name": "isEntering",
          "type": "bool"
        }
      ],
      "name": "setCounselor",
      "outputs": [],
      "stateMutability": "nonpayable",
      "type": "function"
    },
    {
      "inputs": [
        {
          "internalType": "address",
          "name": "newManager",
          "type": "address"
        }
      ],
      "name": "setManager",
      "outputs": [],
      "stateMutability": "nonpayable",
      "type": "function"
    },
    {
      "inputs": [
        {
          "internalType": "string",
          "name": "title",
          "type": "string"
        }
      ],
      "name": "topicExists",
      "outputs": [
        {
          "internalType": "bool",
          "name": "",
          "type": "bool"
        }
      ],
      "stateMutability": "view",
      "type": "function"
    },
    {
      "inputs": [
        {
          "internalType": "bytes32",
          "name": "",
          "type": "bytes32"
        }
      ],
      "name": "topics",
      "outputs": [
        {
          "internalType": "string",
          "name": "title",
          "type": "string"
        },
        {
          "internalType": "string",
          "name": "description",
          "type": "string"
        },
        {
          "internalType": "enum CondominiumLib.Status",
          "name": "status",
          "type": "uint8"
        },
        {
          "internalType": "uint256",
          "name": "createdDate",
          "type": "uint256"
        },
        {
          "internalType": "uint256",
          "name": "startDate",
          "type": "uint256"
        },
        {
          "internalType": "uint256",
          "name": "endDate",
          "type": "uint256"
        }
      ],
      "stateMutability": "view",
      "type": "function"
    },
    {
      "inputs": [
        {
          "internalType": "string",
          "name": "title",
          "type": "string"
        },
        {
          "internalType": "enum CondominiumLib.Options",
          "name": "option",
          "type": "uint8"
        }
      ],
      "name": "vote",
      "outputs": [],
      "stateMutability": "nonpayable",
      "type": "function"
    },
    {
      "inputs": [
        {
          "internalType": "string",
          "name": "title",
          "type": "string"
        }
      ],
      "name": "votesCounter",
      "outputs": [
        {
          "internalType": "uint256",
          "name": "",
          "type": "uint256"
        }
      ],
      "stateMutability": "view",
      "type": "function"
    },
    {
      "inputs": [
        {
          "internalType": "bytes32",
          "name": "",
          "type": "bytes32"
        },
        {
          "internalType": "uint256",
          "name": "",
          "type": "uint256"
        }
      ],
      "name": "votings",
      "outputs": [
        {
          "internalType": "address",
          "name": "resident",
          "type": "address"
        },
        {
          "internalType": "uint16",
          "name": "residence",
          "type": "uint16"
        },
        {
          "internalType": "enum CondominiumLib.Options",
          "name": "option",
          "type": "uint8"
        },
        {
          "internalType": "uint256",
          "name": "timestamp",
          "type": "uint256"
        }
      ],
      "stateMutability": "view",
      "type": "function"
    }
  ],
  "bytecode": "0x60806040523480156200001157600080fd5b50336000806101000a81548173ffffffffffffffffffffffffffffffffffffffff021916908373ffffffffffffffffffffffffffffffffffffffff1602179055506000600190505b60028160ff161162000116576000600190505b60058160ff1611620000ff576000600190505b60058160ff1611620000e85760018060008360ff166064860260ff166103e88860ff1602010161ffff1661ffff16815260200190815260200160002060006101000a81548160ff0219169083151502179055508080620000df9062000159565b9150506200007f565b508080620000f69062000159565b9150506200006c565b5080806200010d9062000159565b91505062000059565b5062000187565b7f4e487b7100000000000000000000000000000000000000000000000000000000600052601160045260246000fd5b600060ff82169050919050565b600062000166826200014c565b915060ff82036200017c576200017b6200011d565b5b600182019050919050565b6131c780620001976000396000f3fe608060405234801561001057600080fd5b506004361061012c5760003560e01c80638fc5dad8116100ad578063b158354611610071578063b15835461461037f578063bc2f89f31461039b578063c1e6adfd146103cb578063d0ebdbe7146103e7578063e4d65d54146104035761012c565b80638fc5dad8146102df57806390ca27f3146102fb578063967d59e41461031757806396fa1def146103475780639e1bf985146103635761012c565b8063597de987116100f4578063597de9871461021757806368aca335146102335780636e8cd7ff1461026357806378b5749d146102935780637b57ee49146102c35761012c565b80630f2fbeec146101315780631a6c019214610166578063474502d814610199578063481c6a75146101c95780634de53265146101e7575b600080fd5b61014b60048036038101906101469190611eaa565b610433565b60405161015d96959493929190611ff7565b60405180910390f35b610180600480360381019061017b9190612092565b61058c565b6040516101909493929190612178565b60405180910390f35b6101b360048036038101906101ae91906122f2565b610614565b6040516101c09190612433565b60405180910390f35b6101d16107cb565b6040516101de9190612455565b60405180910390f35b61020160048036038101906101fc919061249c565b6107ef565b60405161020e91906124e4565b60405180910390f35b610231600480360381019061022c919061249c565b61080f565b005b61024d6004803603810190610248919061249c565b610a1f565b60405161025a91906124e4565b60405180910390f35b61027d600480360381019061027891906122f2565b610a7c565b60405161028a91906124ff565b60405180910390f35b6102ad60048036038101906102a891906122f2565b610aa8565b6040516102ba91906124e4565b60405180910390f35b6102dd60048036038101906102d891906122f2565b610ac0565b005b6102f960048036038101906102f491906122f2565b610c33565b005b6103156004803603810190610310919061253f565b611061565b005b610331600480360381019061032c91906125c7565b611571565b60405161033e91906124e4565b60405180910390f35b610361600480360381019061035c9190612620565b6115a3565b005b61037d600480360381019061037891906122f2565b611730565b005b61039960048036038101906103949190612660565b6118e8565b005b6103b560048036038101906103b091906125c7565b611a70565b6040516103c291906124e4565b60405180910390f35b6103e560048036038101906103e091906126a0565b611a90565b005b61040160048036038101906103fc919061249c565b611c5a565b005b61041d6004803603810190610418919061249c565b611d9a565b60405161042a9190612718565b60405180910390f35b600460205280600052604060002060009150905080600001805461045690612762565b80601f016020809104026020016040519081016040528092919081815260200182805461048290612762565b80156104cf5780601f106104a4576101008083540402835291602001916104cf565b820191906000526020600020905b8154815290600101906020018083116104b257829003601f168201915b5050505050908060010180546104e490612762565b80601f016020809104026020016040519081016040528092919081815260200182805461051090612762565b801561055d5780601f106105325761010080835404028352916020019161055d565b820191906000526020600020905b81548152906001019060200180831161054057829003601f168201915b5050505050908060020160009054906101000a900460ff16908060030154908060040154908060050154905086565b600560205281600052604060002081815481106105a857600080fd5b9060005260206000209060020201600091509150508060000160009054906101000a900473ffffffffffffffffffffffffffffffffffffffff16908060000160149054906101000a900461ffff16908060000160169054906101000a900460ff16908060010154905084565b61061c611dbb565b600082805190602001209050600460008281526020019081526020016000206040518060c001604052908160008201805461065690612762565b80601f016020809104026020016040519081016040528092919081815260200182805461068290612762565b80156106cf5780601f106106a4576101008083540402835291602001916106cf565b820191906000526020600020905b8154815290600101906020018083116106b257829003601f168201915b505050505081526020016001820180546106e890612762565b80601f016020809104026020016040519081016040528092919081815260200182805461071490612762565b80156107615780601f1061073657610100808354040283529160200191610761565b820191906000526020600020905b81548152906001019060200180831161074457829003601f168201915b505050505081526020016002820160009054906101000a900460ff16600381111561078f5761078e611f67565b5b60038111156107a1576107a0611f67565b5b81526020016003820154815260200160048201548152602001600582015481525050915050919050565b60008054906101000a900473ffffffffffffffffffffffffffffffffffffffff1681565b60036020528060005260406000206000915054906101000a900460ff1681565b60008054906101000a900473ffffffffffffffffffffffffffffffffffffffff1673ffffffffffffffffffffffffffffffffffffffff163373ffffffffffffffffffffffffffffffffffffffff161461089d576040517f08c379a0000000000000000000000000000000000000000000000000000000008152600401610894906127df565b60405180910390fd5b600360008273ffffffffffffffffffffffffffffffffffffffff1673ffffffffffffffffffffffffffffffffffffffff16815260200190815260200160002060009054906101000a900460ff161561092a576040517f08c379a00000000000000000000000000000000000000000000000000000000081526004016109219061284b565b60405180910390fd5b600260008273ffffffffffffffffffffffffffffffffffffffff1673ffffffffffffffffffffffffffffffffffffffff16815260200190815260200160002060006101000a81549061ffff0219169055600360008273ffffffffffffffffffffffffffffffffffffffff1673ffffffffffffffffffffffffffffffffffffffff16815260200190815260200160002060009054906101000a900460ff1615610a1c57600360008273ffffffffffffffffffffffffffffffffffffffff1673ffffffffffffffffffffffffffffffffffffffff16815260200190815260200160002060006101000a81549060ff02191690555b50565b600080600260008473ffffffffffffffffffffffffffffffffffffffff1673ffffffffffffffffffffffffffffffffffffffff16815260200190815260200160002060009054906101000a900461ffff1661ffff16119050919050565b600080828051906020012090506005600082815260200190815260200160002080549050915050919050565b600080610ab483610614565b60600151119050919050565b60008054906101000a900473ffffffffffffffffffffffffffffffffffffffff1673ffffffffffffffffffffffffffffffffffffffff163373ffffffffffffffffffffffffffffffffffffffff1614610b4e576040517f08c379a0000000000000000000000000000000000000000000000000000000008152600401610b45906127df565b60405180910390fd5b6000610b5982610614565b905060006003811115610b6f57610b6e611f67565b5b81604001516003811115610b8657610b85611f67565b5b14610bc6576040517f08c379a0000000000000000000000000000000000000000000000000000000008152600401610bbd906128b7565b60405180910390fd5b600460008380519060200120815260200190815260200160002060008082016000610bf19190611e03565b600182016000610c019190611e03565b6002820160006101000a81549060ff021916905560038201600090556004820160009055600582016000905550505050565b60008054906101000a900473ffffffffffffffffffffffffffffffffffffffff1673ffffffffffffffffffffffffffffffffffffffff163373ffffffffffffffffffffffffffffffffffffffff1614610cc1576040517f08c379a0000000000000000000000000000000000000000000000000000000008152600401610cb8906127df565b60405180910390fd5b6000610ccc82610614565b90506000816060015111610d15576040517f08c379a0000000000000000000000000000000000000000000000000000000008152600401610d0c90612923565b60405180910390fd5b60016003811115610d2957610d28611f67565b5b81604001516003811115610d4057610d3f611f67565b5b14610d80576040517f08c379a0000000000000000000000000000000000000000000000000000000008152600401610d779061298f565b60405180910390fd5b60008060008085805190602001209050600060056000838152602001908152602001600020805480602002602001604051908101604052809291908181526020016000905b82821015610eb257838290600052602060002090600202016040518060800160405290816000820160009054906101000a900473ffffffffffffffffffffffffffffffffffffffff1673ffffffffffffffffffffffffffffffffffffffff1673ffffffffffffffffffffffffffffffffffffffff1681526020016000820160149054906101000a900461ffff1661ffff1661ffff1681526020016000820160169054906101000a900460ff166003811115610e8357610e82611f67565b5b6003811115610e9557610e94611f67565b5b815260200160018201548152505081526020019060010190610dc5565b50505050905060005b81518160ff161015610faa5760016003811115610edb57610eda611f67565b5b828260ff1681518110610ef157610ef06129af565b5b6020026020010151604001516003811115610f0f57610f0e611f67565b5b03610f27578580610f1f90612a1a565b965050610f97565b60026003811115610f3b57610f3a611f67565b5b828260ff1681518110610f5157610f506129af565b5b6020026020010151604001516003811115610f6f57610f6e611f67565b5b03610f87578480610f7f90612a1a565b955050610f96565b8380610f9290612a1a565b9450505b5b8080610fa290612a1a565b915050610ebb565b508360ff168560ff161115610ffd5760026004600084815260200190815260200160002060020160006101000a81548160ff02191690836003811115610ff357610ff2611f67565b5b021790555061103d565b60036004600084815260200190815260200160002060020160006101000a81548160ff0219169083600381111561103757611036611f67565b5b02179055505b42600460008481526020019081526020016000206005018190555050505050505050565b60008054906101000a900473ffffffffffffffffffffffffffffffffffffffff1673ffffffffffffffffffffffffffffffffffffffff163373ffffffffffffffffffffffffffffffffffffffff1614806110c057506110bf33610a1f565b5b6110ff576040517f08c379a00000000000000000000000000000000000000000000000000000000081526004016110f690612ab5565b60405180910390fd5b6000600381111561111357611112611f67565b5b81600381111561112657611125611f67565b5b03611166576040517f08c379a000000000000000000000000000000000000000000000000000000000815260040161115d90612b21565b60405180910390fd5b600061117183610614565b905060008160600151116111ba576040517f08c379a00000000000000000000000000000000000000000000000000000000081526004016111b190612923565b60405180910390fd5b600160038111156111ce576111cd611f67565b5b816040015160038111156111e5576111e4611f67565b5b14611225576040517f08c379a000000000000000000000000000000000000000000000000000000000815260040161121c90612b8d565b60405180910390fd5b6000600260003373ffffffffffffffffffffffffffffffffffffffff1673ffffffffffffffffffffffffffffffffffffffff16815260200190815260200160002060009054906101000a900461ffff169050600084805190602001209050600060056000838152602001908152602001600020805480602002602001604051908101604052809291908181526020016000905b828210156113a557838290600052602060002090600202016040518060800160405290816000820160009054906101000a900473ffffffffffffffffffffffffffffffffffffffff1673ffffffffffffffffffffffffffffffffffffffff1673ffffffffffffffffffffffffffffffffffffffff1681526020016000820160149054906101000a900461ffff1661ffff1661ffff1681526020016000820160169054906101000a900460ff16600381111561137657611375611f67565b5b600381111561138857611387611f67565b5b8152602001600182015481525050815260200190600101906112b8565b50505050905060005b8151811015611433578361ffff168282815181106113cf576113ce6129af565b5b60200260200101516020015161ffff1603611426576000611425576040517f08c379a000000000000000000000000000000000000000000000000000000000815260040161141c90612c1f565b60405180910390fd5b5b80806001019150506113ae565b50600060405180608001604052803373ffffffffffffffffffffffffffffffffffffffff1681526020018561ffff16815260200187600381111561147a57611479611f67565b5b81526020014281525090506005600084815260200190815260200160002081908060018154018082558091505060019003906000526020600020906002020160009091909190915060008201518160000160006101000a81548173ffffffffffffffffffffffffffffffffffffffff021916908373ffffffffffffffffffffffffffffffffffffffff16021790555060208201518160000160146101000a81548161ffff021916908361ffff16021790555060408201518160000160166101000a81548160ff0219169083600381111561155757611556611f67565b5b021790555060608201518160010155505050505050505050565b6000600160008361ffff1661ffff16815260200190815260200160002060009054906101000a900460ff169050919050565b60008054906101000a900473ffffffffffffffffffffffffffffffffffffffff1673ffffffffffffffffffffffffffffffffffffffff163373ffffffffffffffffffffffffffffffffffffffff1614611631576040517f08c379a0000000000000000000000000000000000000000000000000000000008152600401611628906127df565b60405180910390fd5b80156116dc5761164082610a1f565b61167f576040517f08c379a000000000000000000000000000000000000000000000000000000000815260040161167690612c8b565b60405180910390fd5b6001600360008473ffffffffffffffffffffffffffffffffffffffff1673ffffffffffffffffffffffffffffffffffffffff16815260200190815260200160002060006101000a81548160ff02191690831515021790555061172c565b600360008373ffffffffffffffffffffffffffffffffffffffff1673ffffffffffffffffffffffffffffffffffffffff16815260200190815260200160002060006101000a81549060ff02191690555b5050565b60008054906101000a900473ffffffffffffffffffffffffffffffffffffffff1673ffffffffffffffffffffffffffffffffffffffff163373ffffffffffffffffffffffffffffffffffffffff16146117be576040517f08c379a00000000000000000000000000000000000000000000000000000000081526004016117b5906127df565b60405180910390fd5b60006117c982610614565b90506000816060015111611812576040517f08c379a000000000000000000000000000000000000000000000000000000000815260040161180990612923565b60405180910390fd5b6000600381111561182657611825611f67565b5b8160400151600381111561183d5761183c611f67565b5b1461187d576040517f08c379a000000000000000000000000000000000000000000000000000000000815260040161187490612d1d565b60405180910390fd5b60008280519060200120905060016004600083815260200190815260200160002060020160006101000a81548160ff021916908360038111156118c3576118c2611f67565b5b0217905550426004600083815260200190815260200160002060040181905550505050565b60008054906101000a900473ffffffffffffffffffffffffffffffffffffffff1673ffffffffffffffffffffffffffffffffffffffff163373ffffffffffffffffffffffffffffffffffffffff16148061198b5750600360003373ffffffffffffffffffffffffffffffffffffffff1673ffffffffffffffffffffffffffffffffffffffff16815260200190815260200160002060009054906101000a900460ff165b6119ca576040517f08c379a00000000000000000000000000000000000000000000000000000000081526004016119c190612daf565b60405180910390fd5b6119d381611571565b611a12576040517f08c379a0000000000000000000000000000000000000000000000000000000008152600401611a0990612e1b565b60405180910390fd5b80600260008473ffffffffffffffffffffffffffffffffffffffff1673ffffffffffffffffffffffffffffffffffffffff16815260200190815260200160002060006101000a81548161ffff021916908361ffff1602179055505050565b60016020528060005260406000206000915054906101000a900460ff1681565b60008054906101000a900473ffffffffffffffffffffffffffffffffffffffff1673ffffffffffffffffffffffffffffffffffffffff163373ffffffffffffffffffffffffffffffffffffffff161480611aef5750611aee33610a1f565b5b611b2e576040517f08c379a0000000000000000000000000000000000000000000000000000000008152600401611b2590612ab5565b60405180910390fd5b611b3782610aa8565b15611b77576040517f08c379a0000000000000000000000000000000000000000000000000000000008152600401611b6e90612e87565b60405180910390fd5b60006040518060c0016040528084815260200183815260200160006003811115611ba457611ba3611f67565b5b815260200142815260200160008152602001600081525090508060046000858051906020012081526020019081526020016000206000820151816000019081611bed9190613053565b506020820151816001019081611c039190613053565b5060408201518160020160006101000a81548160ff02191690836003811115611c2f57611c2e611f67565b5b0217905550606082015181600301556080820151816004015560a08201518160050155905050505050565b60008054906101000a900473ffffffffffffffffffffffffffffffffffffffff1673ffffffffffffffffffffffffffffffffffffffff163373ffffffffffffffffffffffffffffffffffffffff1614611ce8576040517f08c379a0000000000000000000000000000000000000000000000000000000008152600401611cdf906127df565b60405180910390fd5b600073ffffffffffffffffffffffffffffffffffffffff168173ffffffffffffffffffffffffffffffffffffffff1603611d57576040517f08c379a0000000000000000000000000000000000000000000000000000000008152600401611d4e90613171565b60405180910390fd5b806000806101000a81548173ffffffffffffffffffffffffffffffffffffffff021916908373ffffffffffffffffffffffffffffffffffffffff16021790555050565b60026020528060005260406000206000915054906101000a900461ffff1681565b6040518060c00160405280606081526020016060815260200160006003811115611de857611de7611f67565b5b81526020016000815260200160008152602001600081525090565b508054611e0f90612762565b6000825580601f10611e215750611e40565b601f016020900490600052602060002090810190611e3f9190611e43565b5b50565b5b80821115611e5c576000816000905550600101611e44565b5090565b6000604051905090565b600080fd5b600080fd5b6000819050919050565b611e8781611e74565b8114611e9257600080fd5b50565b600081359050611ea481611e7e565b92915050565b600060208284031215611ec057611ebf611e6a565b5b6000611ece84828501611e95565b91505092915050565b600081519050919050565b600082825260208201905092915050565b60005b83811015611f11578082015181840152602081019050611ef6565b60008484015250505050565b6000601f19601f8301169050919050565b6000611f3982611ed7565b611f438185611ee2565b9350611f53818560208601611ef3565b611f5c81611f1d565b840191505092915050565b7f4e487b7100000000000000000000000000000000000000000000000000000000600052602160045260246000fd5b60048110611fa757611fa6611f67565b5b50565b6000819050611fb882611f96565b919050565b6000611fc882611faa565b9050919050565b611fd881611fbd565b82525050565b6000819050919050565b611ff181611fde565b82525050565b600060c08201905081810360008301526120118189611f2e565b905081810360208301526120258188611f2e565b90506120346040830187611fcf565b6120416060830186611fe8565b61204e6080830185611fe8565b61205b60a0830184611fe8565b979650505050505050565b61206f81611fde565b811461207a57600080fd5b50565b60008135905061208c81612066565b92915050565b600080604083850312156120a9576120a8611e6a565b5b60006120b785828601611e95565b92505060206120c88582860161207d565b9150509250929050565b600073ffffffffffffffffffffffffffffffffffffffff82169050919050565b60006120fd826120d2565b9050919050565b61210d816120f2565b82525050565b600061ffff82169050919050565b61212a81612113565b82525050565b6004811061214157612140611f67565b5b50565b600081905061215282612130565b919050565b600061216282612144565b9050919050565b61217281612157565b82525050565b600060808201905061218d6000830187612104565b61219a6020830186612121565b6121a76040830185612169565b6121b46060830184611fe8565b95945050505050565b600080fd5b600080fd5b7f4e487b7100000000000000000000000000000000000000000000000000000000600052604160045260246000fd5b6121ff82611f1d565b810181811067ffffffffffffffff8211171561221e5761221d6121c7565b5b80604052505050565b6000612231611e60565b905061223d82826121f6565b919050565b600067ffffffffffffffff82111561225d5761225c6121c7565b5b61226682611f1d565b9050602081019050919050565b82818337600083830152505050565b600061229561229084612242565b612227565b9050828152602081018484840111156122b1576122b06121c2565b5b6122bc848285612273565b509392505050565b600082601f8301126122d9576122d86121bd565b5b81356122e9848260208601612282565b91505092915050565b60006020828403121561230857612307611e6a565b5b600082013567ffffffffffffffff81111561232657612325611e6f565b5b612332848285016122c4565b91505092915050565b600082825260208201905092915050565b600061235782611ed7565b612361818561233b565b9350612371818560208601611ef3565b61237a81611f1d565b840191505092915050565b61238e81611fbd565b82525050565b61239d81611fde565b82525050565b600060c08301600083015184820360008601526123c0828261234c565b915050602083015184820360208601526123da828261234c565b91505060408301516123ef6040860182612385565b5060608301516124026060860182612394565b5060808301516124156080860182612394565b5060a083015161242860a0860182612394565b508091505092915050565b6000602082019050818103600083015261244d81846123a3565b905092915050565b600060208201905061246a6000830184612104565b92915050565b612479816120f2565b811461248457600080fd5b50565b60008135905061249681612470565b92915050565b6000602082840312156124b2576124b1611e6a565b5b60006124c084828501612487565b91505092915050565b60008115159050919050565b6124de816124c9565b82525050565b60006020820190506124f960008301846124d5565b92915050565b60006020820190506125146000830184611fe8565b92915050565b6004811061252757600080fd5b50565b6000813590506125398161251a565b92915050565b6000806040838503121561255657612555611e6a565b5b600083013567ffffffffffffffff81111561257457612573611e6f565b5b612580858286016122c4565b92505060206125918582860161252a565b9150509250929050565b6125a481612113565b81146125af57600080fd5b50565b6000813590506125c18161259b565b92915050565b6000602082840312156125dd576125dc611e6a565b5b60006125eb848285016125b2565b91505092915050565b6125fd816124c9565b811461260857600080fd5b50565b60008135905061261a816125f4565b92915050565b6000806040838503121561263757612636611e6a565b5b600061264585828601612487565b92505060206126568582860161260b565b9150509250929050565b6000806040838503121561267757612676611e6a565b5b600061268585828601612487565b9250506020612696858286016125b2565b9150509250929050565b600080604083850312156126b7576126b6611e6a565b5b600083013567ffffffffffffffff8111156126d5576126d4611e6f565b5b6126e1858286016122c4565b925050602083013567ffffffffffffffff81111561270257612701611e6f565b5b61270e858286016122c4565b9150509250929050565b600060208201905061272d6000830184612121565b92915050565b7f4e487b7100000000000000000000000000000000000000000000000000000000600052602260045260246000fd5b6000600282049050600182168061277a57607f821691505b60208210810361278d5761278c612733565b5b50919050565b7f4f6e6c7920746865206d616e616765722063616e20646f207468697300000000600082015250565b60006127c9601c83611ee2565b91506127d482612793565b602082019050919050565b600060208201905081810360008301526127f8816127bc565b9050919050565b7f4120636f756e73656c6f722063616e6e6f742062652072656d6f766564000000600082015250565b6000612835601d83611ee2565b9150612840826127ff565b602082019050919050565b6000602082019050818103600083015261286481612828565b9050919050565b7f4f6e6c792049444c4520746f706963732063616e2062652072656d6f76656400600082015250565b60006128a1601f83611ee2565b91506128ac8261286b565b602082019050919050565b600060208201905081810360008301526128d081612894565b9050919050565b7f54686520746f70696320646f6573206e6f742065786973740000000000000000600082015250565b600061290d601883611ee2565b9150612918826128d7565b602082019050919050565b6000602082019050818103600083015261293c81612900565b9050919050565b7f4f6e6c7920564f54494e4720746f706963732063616e20626520636c6f736564600082015250565b6000612979602083611ee2565b915061298482612943565b602082019050919050565b600060208201905081810360008301526129a88161296c565b9050919050565b7f4e487b7100000000000000000000000000000000000000000000000000000000600052603260045260246000fd5b7f4e487b7100000000000000000000000000000000000000000000000000000000600052601160045260246000fd5b600060ff82169050919050565b6000612a2582612a0d565b915060ff8203612a3857612a376129de565b5b600182019050919050565b7f4f6e6c7920746865206d616e61676572206f7220746865207265736964656e7460008201527f732063616e20646f207468697300000000000000000000000000000000000000602082015250565b6000612a9f602d83611ee2565b9150612aaa82612a43565b604082019050919050565b60006020820190508181036000830152612ace81612a92565b9050919050565b7f546865206f7074696f6e2063616e6e6f7420626520454d505459000000000000600082015250565b6000612b0b601a83611ee2565b9150612b1682612ad5565b602082019050919050565b60006020820190508181036000830152612b3a81612afe565b9050919050565b7f4f6e6c7920564f54494e4720746f706963732063616e20626520766f74656400600082015250565b6000612b77601f83611ee2565b9150612b8282612b41565b602082019050919050565b60006020820190508181036000830152612ba681612b6a565b9050919050565b7f41207265736964656e63652073686f756c6420766f7465206f6e6c79206f6e6360008201527f6500000000000000000000000000000000000000000000000000000000000000602082015250565b6000612c09602183611ee2565b9150612c1482612bad565b604082019050919050565b60006020820190508181036000830152612c3881612bfc565b9050919050565b7f54686520636f756e73656c6f72206d7573742062652061207265736964656e74600082015250565b6000612c75602083611ee2565b9150612c8082612c3f565b602082019050919050565b60006020820190508181036000830152612ca481612c68565b9050919050565b7f4f6e6c792049444c4520746f706963732063616e206265206f70656e20666f7260008201527f20766f74696e6700000000000000000000000000000000000000000000000000602082015250565b6000612d07602783611ee2565b9150612d1282612cab565b604082019050919050565b60006020820190508181036000830152612d3681612cfa565b9050919050565b7f4f6e6c7920746865206d616e61676572206f722074686520636f756e63696c2060008201527f63616e20646f2074686973000000000000000000000000000000000000000000602082015250565b6000612d99602b83611ee2565b9150612da482612d3d565b604082019050919050565b60006020820190508181036000830152612dc881612d8c565b9050919050565b7f54686973207265736964656e636520646f6573206e6f74206578697374000000600082015250565b6000612e05601d83611ee2565b9150612e1082612dcf565b602082019050919050565b60006020820190508181036000830152612e3481612df8565b9050919050565b7f5468697320746f70696320616c72656164792065786973747300000000000000600082015250565b6000612e71601983611ee2565b9150612e7c82612e3b565b602082019050919050565b60006020820190508181036000830152612ea081612e64565b9050919050565b60008190508160005260206000209050919050565b60006020601f8301049050919050565b600082821b905092915050565b600060088302612f097fffffffffffffffffffffffffffffffffffffffffffffffffffffffffffffffff82612ecc565b612f138683612ecc565b95508019841693508086168417925050509392505050565b6000819050919050565b6000612f50612f4b612f4684611fde565b612f2b565b611fde565b9050919050565b6000819050919050565b612f6a83612f35565b612f7e612f7682612f57565b848454612ed9565b825550505050565b600090565b612f93612f86565b612f9e818484612f61565b505050565b5b81811015612fc257612fb7600082612f8b565b600181019050612fa4565b5050565b601f82111561300757612fd881612ea7565b612fe184612ebc565b81016020851015612ff0578190505b613004612ffc85612ebc565b830182612fa3565b50505b505050565b600082821c905092915050565b600061302a6000198460080261300c565b1980831691505092915050565b60006130438383613019565b9150826002028217905092915050565b61305c82611ed7565b67ffffffffffffffff811115613075576130746121c7565b5b61307f8254612762565b61308a828285612fc6565b600060209050601f8311600181146130bd57600084156130ab578287015190505b6130b58582613037565b86555061311d565b601f1984166130cb86612ea7565b60005b828110156130f3578489015182556001820191506020850194506020810190506130ce565b86831015613110578489015161310c601f891682613019565b8355505b6001600288020188555050505b505050505050565b7f5468652061646472657373206d7573742062652076616c696400000000000000600082015250565b600061315b601983611ee2565b915061316682613125565b602082019050919050565b6000602082019050818103600083015261318a8161314e565b905091905056fea2646970667358221220a56ca68f62ffdb156485d5566a554fdbfc6a6d04d1a14c34892d076e7760365464736f6c63430008180033",
  "linkReferences": {},
  "deployedLinkReferences": {}
}